:020000040800F2
:100000000050002069580008155800081D580008C5
:10001000255800082D580008355800080000000039
:10002000000000000000000000000000D1440008B3
:100030003D580008000000004D47000895470008A3
:10004000B1580008B1580008B1580008B15800086C
:10005000B1580008B1580008B1580008B15800085C
:10006000B1580008B1580008B1580008B15800084C
:10007000B1580008B1580008B1580008B15800083C
:10008000B1580008B1580008B1580008B15800082C
:10009000B1580008B1580008B1580008B15800081C
:1000A000B158000849580008B1580008B158000874
:1000B000B1580008B1580008B1580008B1580008FC
:1000C000B1580008B1580008B1580008B1580008EC
:1000D000B1580008B1580008B1580008B1580008DC
:1000E000B1580008B1580008B158000800000000DD
:1000F0000000000000000000000000000000000000
:0C01000000000000000000005FF808F1A3
:10010C0010B5054C237833B9044B13B10448AFF345
:10011C0000800123237010BD780000200000000037
:10012C009080000808B5034B1BB103490348AFF39B
:10013C00008008BD000000007C00002090800008BA
:10014C00F0B400EB4003DFF8800000EBC30000F1DB
:10015C0018063069F768756887422ED3B368DC1BC4
:10016C00631E934212D37D19D01900BF11F8013BC5
:10017C0005F8013B013A05D011F8013B05F8013BAC
:10018C00013AF3D1F0600120F0BC7047C0189042E6
:10019C0017D37819121B11F8013B00F8013B013CF5
:1001AC00F9D1141C05D011F8013B05F8013B013ABB
:1001BC00F9D1F4600120F0BC7047C01B01389042AB
:1001CC00D1D20020F0BC70478801002080F00040A4
:1001DC0002E000BF81F0004142001FBF5FEA410313
:1001EC0092EA030F7FEA226C7FEA236C6AD04FEA13
:1001FC001262D2EB1363C1BFD21841404840414058
:10020C00B8BF5B42192B88BF704710F0004F40F409
:10021C00000020F07F4018BF404211F0004F41F425
:10022C00000121F07F4118BF494292EA030F3FD0F1
:10023C00A2F1010241FA03FC10EB0C00C3F1200304
:10024C0001FA03F100F0004302D5494260EB400093
:10025C00B0F5000F13D3B0F1807F06D340084FEAFE
:10026C00310102F10102FE2A51D2B1F1004F40EBF3
:10027C00C25008BF20F0010040EA0300704749005B
:10028C0040EB0000013A28BFB0F5000FEDD2B0FAF8
:10029C0080FCACF1080CB2EB0C0200FA0CF0AABF1B
:1002AC0000EBC25052421843BCBFD04018437047B9
:1002BC0092F0000F81F4000106BF80F400000132BF
:1002CC00013BB5E74FEA41037FEA226C18BF7FEA96
:1002DC00236C21D092EA030F04D092F0000F08BFD8
:1002EC000846704790EA010F1CBF0020704712F0BF
:1002FC007F4F04D1400028BF40F00040704712F1FE
:10030C0000723CBF00F50000704700F0004343F062
:10031C00FE4040F4000070477FEA226216BF084698
:10032C007FEA23630146420206BF5FEA412390EA5B
:10033C00010F40F4800070474FF0000304E000BF51
:10034C0010F0004348BF40425FEA000C08BF704702
:10035C0043F0964301464FF000001CE050EA0102C6
:10036C0008BF70474FF000030AE000BF50EA0102DB
:10037C0008BF704711F0004302D5404261EB4101C8
:10038C005FEA010C02BF84460146002043F0B643ED
:10039C0008BFA3F18053A3F50003BCFA8CF2083A12
:1003AC00A3EBC25310DB01FA02FC634400FA02FC1B
:1003BC00C2F12002BCF1004F20FA02F243EB020022
:1003CC0008BF20F00100704702F1200201FA02FC84
:1003DC00C2F1200250EA4C0021FA02F243EB020077
:1003EC0008BF20EADC7070474FF0FF0C1CEAD052BB
:1003FC001EBF1CEAD15392EA0C0F93EA0C0F6FD07C
:10040C001A4480EA010C400218BF5FEA41211ED059
:10041C004FF0006343EA501043EA5111A0FB013145
:10042C000CF00040B1F5000F3EBF490041EAD3711A
:10043C005B0040EA010062F17F02FD2A1DD8B3F196
:10044C00004F40EBC25008BF20F00100704790F005
:10045C00000F0CF0004C08BF49024CEA502040EA57
:10046C0051207F3AC2BFD2F1FF0340EAC25070471D
:10047C0040F400004FF00003013A5DDC12F1190F5B
:10048C00DCBF00F000407047C2F10002410021FACD
:10049C0002F1C2F1200200FA02FC5FEA310040F1E5
:1004AC00000053EA4C0308BF20EADC70704792F05E
:1004BC00000F00F0004C02BF400010F4000F013A96
:1004CC00F9D040EA0C0093F0000F01F0004C02BF91
:1004DC00490011F4000F013BF9D041EA0C018FE700
:1004EC000CEAD15392EA0C0F18BF93EA0C0F0AD006
:1004FC0030F0004C18BF31F0004CD8D180EA01002C
:10050C0000F00040704790F0000F17BF90F0004FC4
:10051C00084691F0000F91F0004F14D092EA0C0FA6
:10052C0001D142020FD193EA0C0F03D14B0218BF39
:10053C00084608D180EA010000F0004040F0FE407F
:10054C0040F40000704740F0FE4040F4400070471B
:10055C004FF0FF0C1CEAD0521EBF1CEAD15392EA9A
:10056C000C0F93EA0C0F69D0A2EB030280EA010C8A
:10057C0049024FEA402037D04FF0805343EA111123
:10058C0043EA10130CF000408B4238BF5B0042F181
:10059C007D024FF4000C8B4224BF5B1A40EA0C0026
:1005AC00B3EB510F24BFA3EB510340EA5C00B3EB58
:1005BC00910F24BFA3EB910340EA9C00B3EBD10F46
:1005CC0024BFA3EBD10340EADC001B0118BF5FEA98
:1005DC001C1CE0D1FD2A3FF650AF8B4240EBC250C1
:1005EC0008BF20F0010070470CF0004C4CEA502082
:1005FC007F32C2BFD2F1FF0340EAC250704740F4D1
:10060C0000004FF00003013A37E792F0000F00F0C2
:10061C00004C02BF400010F4000F013AF9D040EA40
:10062C000C0093F0000F01F0004C02BF490011F4D4
:10063C00000F013BF9D041EA0C0195E70CEAD153CC
:10064C0092EA0C0F08D142027FF47DAF93EA0C0FB3
:10065C007FF470AF084676E793EA0C0F04D14B0297
:10066C003FF44CAF08466EE730F0004C18BF31F049
:10067C00004CCAD130F000427FF45CAF31F0004343
:10068C007FF43CAF5FE700BF4FF0FF3C06E000BFDC
:10069C004FF0010C02E000BF4FF0010C4DF804CDFF
:1006AC004FEA40024FEA41037FEA226C18BF7FEA0F
:1006BC00236C11D001B052EA530C18BF90EA010F11
:1006CC0058BFB2EB030088BFC81738BF6FEAE170A0
:1006DC0018BF40F0010070477FEA226C02D15FEA3C
:1006EC00402C05D17FEA236CE4D15FEA412CE1D0A8
:1006FC005DF8040B704700BF844608466146FFE76F
:10070C000FB5FFF7C9FF002848BF10F1000F0FBD50
:10071C004DF808EDFFF7F4FF0CBF012000205DF849
:10072C0008FB00BF4DF808EDFFF7EAFF34BF0120CE
:10073C0000205DF808FB00BF4DF808EDFFF7E0FF67
:10074C0094BF012000205DF808FB00BF4DF808EDB8
:10075C00FFF7D2FF94BF012000205DF808FB00BF1B
:10076C004DF808EDFFF7C8FF34BF012000205DF8FD
:10077C0008FB00BF4FEA40024FEA41037FEA226CBC
:10078C0002D15FEA402C08D17FEA236C02D15FEAE8
:10079C00412C02D14FF0000070474FF00100704720
:1007AC0080B500AF034801F0BBF9034801F0B8F97C
:1007BC0000BF80BDA8800008DC80000880B500AFB9
:1007CC00064B1868054B1968054B064A00F030FEBD
:1007DC004FF0805000F070FE00BF80BD1400002070
:1007EC00AD070008B8810008F0B585B002AF002352
:1007FC007B6048E029497A6813469B0013449B00B0
:10080C000B441B68184603F043FA014623487A68E8
:10081C0013469B0013449B000344103319601F497B
:10082C007A6813469B0013449B000B4418681B49C1
:10083C007A6813469B0013449B000B4404331968DD
:10084C00164C7A6813469B0013449B0023440833D0
:10085C001C68124D7A6813469B0013449B002B4472
:10086C000C331D680D4E7A6813469B0013449B0095
:10087C00334410331B6800932B46224600F07AF960
:10088C007B6801337B60064B1B687A689A42B1D354
:10089C0000BF00BF0C37BD46F0BD00BF9400002068
:1008AC00840100202DE9B04F82B000AF02F09EFD14
:1008BC00034600229A469346C7E900ABD7E90001EC
:1008CC0002460B464FF0000A4FF0000B4FEA431B59
:1008DC004BEAD26B4FEA421A52465B46141A63EB50
:1008EC0001054FF000024FF00003AB0043EA947394
:1008FC00A20014461D4614EB000845EB01094FF00D
:10090C0000024FF000034FEAC90343EA58734FEA61
:10091C00C80290469946C7E90089D7E900231046DA
:10092C0019460837BD46BDE8B08F000080B586B0CB
:10093C0002AFF860B9607A603B6005222B49B86859
:10094C0007F02CF90346002B4BD0294B1B680B2BC3
:10095C0003D9284801F080FC44E0254B1A6826494D
:10096C0013469B0013449B000B44FA681A60204BFF
:10097C001A68214913469B0013449B000B44043313
:10098C00BA681A601A4B1A681B4913469B00134429
:10099C009B000B4408337A681A60154B1A68164989
:1009AC0013469B0013449B000B440C333A681A60AB
:1009BC000F4B1A68104913469B0013449B000B44C1
:1009CC001033BA691A600A4B1B680133084A13606A
:1009DC00BB6900933B687A68B968F86800F0CAF89C
:1009EC0000E000BF1037BD4680BD00BFEC800008A2
:1009FC0084010020F48000089400002080B584B0AD
:100A0C0000AF7860594B1B68002B00F0AB800023C3
:100A1C00FB600DE05649FA6813469B0013449B009B
:100A2C000B441B687A689A4208D0FB680133FB6060
:100A3C004E4B1B68FA689A42ECD300E000BF4B4B5C
:100A4C001B68013BFA689A4211D1FA6813469B0065
:100A5C0013449B00464A134414220021184607F005
:100A6C00ADF8424B1B68013B404A13607BE03F4BA7
:100A7C001B68FA689A4276D23C4B1B685A1E3C495A
:100A8C0013469B0013449B000B4419683848FA68C2
:100A9C0013469B0013449B0003441960334B1B68A3
:100AAC005A1E334913469B0013449B000B440433DA
:100ABC0019682F48FA6813469B0013449B000344A3
:100ACC0004331960294B1B685A1E294913469B0095
:100ADC0013449B000B44083319682548FA681346E5
:100AEC009B0013449B000344083319601F4B1B6885
:100AFC005A1E1F4913469B0013449B000B440C3396
:100B0C0019681B48FA6813469B0013449B00034466
:100B1C000C331960154B1B685A1E154913469B0064
:100B2C0013449B000B44103319681148FA681346A0
:100B3C009B0013449B000344103319600B4B1B6840
:100B4C005A1E13469B0013449B00094A134414225B
:100B5C000021184607F032F8044B1B68013B034A8E
:100B6C00136000E000BF1037BD4680BD840100203B
:100B7C009400002080B58AB000AFF860B9607A604C
:100B8C003B6007F1100318220021184607F016F8F5
:100B9C00FB683B61BB687B617B68BB613B68FB614D
:100BAC003B6B3B6207F11003184600F0C1FE00BF1F
:100BBC002837BD4680BD000080B582B000AF254B04
:100BCC003B60A8220021386806F0F8FF3B6803223E
:100BDC001A613B6803225A613B681F4A9A613B6861
:100BEC001E4ADA613B684FF480621A623B6800224D
:100BFC009A623B6800225A623B680022DA623B68C8
:100C0C00154A1A663B68164A5A663B6810229A6661
:100C1C003B6800221A673B680022DA663B680022B8
:100C2C005A6700237B600CE07B68C3F10F030D4A0D
:100C3C00D15C3A687B6813440A461A707B680133AE
:100C4C007B607B680F2BEFD900BF00BF0837BD4618
:100C5C0080BD00BF880100204481000830020020C4
:100C6C0030060020C081000880B58CB000AFF86061
:100C7C00B9607A603E4B3B623B6A1B78DBB2532B0C
:100C8C0001D0FFF799FFFA6813465B001344DB00B1
:100C9C006033374A1344FB61BB687B62FB691B6999
:100CAC00BB62FB69DB68BB610023FB62BA6ABB6990
:100CBC009A422BD9FB699A68BB6AD31A7B617A6911
:100CCC007B68934228BF13467B61FB695A68BB6AF9
:100CDC0013443B617A693969786A06F0A1FFFA6AB4
:100CEC007B691344FB627A6A7B6913447B627A6882
:100CFC007B69D31A7B60BA6A7B691344BB62FB695C
:100D0C009B68BA6A9A4201D10023BB62BA69BB6A7A
:100D1C00D31A7B617A697B68934228BF13467B6147
:100D2C007B69002B19D0FB695A68BB6A13443B6181
:100D3C007A693969786A06F073FFFA6A7B69134439
:100D4C00FB627A6A7B6913447B627A687B69D31A8B
:100D5C007B60BA6A7B691344BB62FB6A002B02D0CE
:100D6C00FB69BA6A1A61FB6A18463037BD4680BD0A
:100D7C008801002080B588B000AFF860B9607A6057
:100D8C003B603C4BBB61BB691B78DBB2532B01D086
:100D9C00FFF712FFEFF311834FF0200181F311885D
:100DAC007B61344B3B610023FB613969FB695A1C45
:100DBC0013465B001344DB000B4404331B68002B0D
:100DCC0008D0FB690133FB613B691B69FA699A42E4
:100DDC00EBDB00E000BF3B691B69FA699A423DDA24
:100DEC003969FB695A1C13465B001344DB000B4446
:100DFC00FA681A603969FB695A1C13465B00134484
:100E0C00DB000B440433BA681A603969FA6913467B
:100E1C005B001344DB000B4420337A681A60396999
:100E2C00FA6913465B001344DB000B4428330022A1
:100E3C001A603969FA6913465B001344DB000B44F2
:100E4C00243300221A603969FA6913465B00134493
:100E5C00DB000B442C333A681A6002E04FF0FF338E
:100E6C00FB617B6983F31188FB6918462037BD460B
:100E7C0080BD00BF8801002080B58AB000AFF8604B
:100E8C00B9607A603B60204B3B623B6A1B78DBB2FB
:100E9C00532B01D0FFF790FE1B4BFB61FB68022B21
:100EAC002AD8EFF311834FF0200181F31188BB6135
:100EBC00FA6813465B001344DB006033FA69134491
:100ECC007B61FB68002B0ED07B69BA681A607B696A
:100EDC007A685A607B693A689A607B6900221A6169
:100EEC007B690022DA607B693A6B5A61BB6983F3D8
:100EFC00118800237B6202E04FF0FF337B627B6A38
:100F0C0018462837BD4680BD8801002080B487B0C4
:100F1C0000AFF860B9607A60BB68002B05D1FB6844
:100F2C005A1CFA6000221A7022E0BB687B61FB68D5
:100F3C005A1CFA603B617B68802B0AD980237B604A
:100F4C0007E0BA68531CBB60FB68591CF960127847
:100F5C001A707B685A1E7A60002B03D0BB681B7812
:100F6C00002BEED1BA687B69D31ADAB23B691A70DE
:100F7C00FB6818461C37BD4680BC704780B483B0F4
:100F8C0000AF78607B68073318460C37BD4680BCD1
:100F9C007047000080B582B000AF344B1B7E184602
:100FAC00FB1C01221946FFF75FFE78607B68002B63
:100FBC0057D0FB78802B31D0802B40DC072B15DCF5
:100FCC00002B3CDD013B062B39D801A252F823F053
:100FDC00FF0F0008051000080B1000081110000886
:100FEC00171000081D100008231000087F2B33D0A9
:100FFC0025E000F023FB34E000F0DAFB31E000F0F8
:10100C00B3FD2EE000F078FD2BE000F0F7FB28E0BC
:10101C0001F0E4F825E001F0C3F822E0134B1B7E4D
:10102C001846FB1C01221946FFF71EFE78607B68F0
:10103C00002B13D0FB78184601F028F80EE0FB7853
:10104C005BB2002B0CDA094B1B7E1846FB1C0122F1
:10105C001946FFF709FE03E000BF02E000BF00E005
:10106C0000BF00BF0837BD4680BD00BF480E002042
:10107C0080B58CB000AF01233B713B1D0133FB618C
:10108C00FB69FB62314B5B69BB620BE0BB6ADAB29A
:10109C00FB6A591CF96262F07F02D2B21A70BB6A09
:1010AC00DB09BB62BB6A7F2BF0D8FB6A5A1CFA6265
:1010BC00BA6AD2B21A70FB6AFB61254B1B68BB6122
:1010CC00224BDB68BA69D31A7B61FB697B627B6953
:1010DC003B620BE03B6ADAB27B6A591C796262F0C4
:1010EC007F02D2B21A703B6ADB093B623B6A7F2BF0
:1010FC00F0D87B6A5A1C7A623A6AD2B21A707B6A4E
:10110C00FB61124B5B7818463B1DFA69D31A1A46E1
:10111C003B1D1946FFF714F803463B613B69002B56
:10112C0009D00A4ABB69D360084B1B78013BDAB281
:10113C00064B1A7004E0054B5B690133034A53619B
:10114C003B6918463037BD4680BD00BF480E0020B5
:10115C00041000E080B58AB000AFF860B9607A6026
:10116C00984B1B78012B10D0964B1B78002B00F062
:10117C002D81944B1B78022B09D1FFF779FF914BF2
:10118C001B78012B40F0248101E000BF00E000BF80
:10119C007B681F2B09D88B4BDA697B6822FA03F327
:1011AC0003F00103002B40F015817B68172B07D847
:1011BC00FB68013BFB607B68DAB2FB681A70C4E029
:1011CC00BA68FB68D31AFB61FB697F2B12D9FB69E8
:1011DC00DA09FB68013BFB60D2B2FB681A70FB6951
:1011EC00DBB2FA68013AFA6063F07F03DAB2FB68AB
:1011FC001A7006E0FB68013BFB60FB69DAB2FB6826
:10120C001A707B687E2B07D8FB68013BFB607B6800
:10121C00DAB2FB681A7098E07B68B3F5804F12D293
:10122C007B68DA09FB68013BFB60D2B2FB681A7081
:10123C007B68DBB2FA68013AFA6063F07F03DAB2DA
:10124C00FB681A7081E07B68B3F5001F1DD27B68C8
:10125C009A0BFB68013BFB60D2B2FB681A707B688F
:10126C00DB09DBB2FA68013AFA6063F07F03DAB2A9
:10127C00FB681A707B68DBB2FA68013AFA6063F0BB
:10128C007F03DAB2FB681A705FE07B68B3F1805FB2
:10129C0028D27B685A0DFB68013BFB60D2B2FB681D
:1012AC001A707B689B0BDBB2FA68013AFA6063F048
:1012BC007F03DAB2FB681A707B68DB09DBB2FA6871
:1012CC00013AFA6063F07F03DAB2FB681A707B684C
:1012DC00DBB2FA68013AFA6063F07F03DAB2FB68BA
:1012EC001A7032E07B681A0FFB68013BFB60D2B2CC
:1012FC00FB681A707B685B0DDBB2FA68013AFA6026
:10130C0063F07F03DAB2FB681A707B689B0BDBB26D
:10131C00FA68013AFA6063F07F03DAB2FB681A707C
:10132C007B68DB09DBB2FA68013AFA6063F07F0391
:10133C00DAB2FB681A707B68DBB2FA68013AFA60C1
:10134C0063F07F03DAB2FB681A701F4B1B68BB613A
:10135C001C4BDB68BA69D31A7B61BB687B627B6907
:10136C003B620BE03B6ADAB27B6A591C796262F031
:10137C007F02D2B21A703B6ADB093B623B6A7F2B5D
:10138C00F0D87B6A5A1C7A623A6AD2B21A707B6ABB
:10139C00BB600C4B5B781846BA68FB68D31A1A46CC
:1013AC00F968FEF7CDFE38613B69002B03D0054A86
:1013BC00BB69D3600FE0034B1B780133DAB2014BEE
:1013CC001A7008E0480E0020041000E000BF02E094
:1013DC0000BF00E000BF144B1B7E1946134A0B469E
:1013EC005B000B44DB0013446C331A680E4B1B7E02
:1013FC0018460E4903465B000344DB000B44703374
:10140C001B689A420BD0084B9B78002B07D1064BDC
:10141C0001229A70FFF7BEFD034B00229A7000BFA9
:10142C002837BD4680BD00BF480E00208801002033
:10143C0080B586B002AFF860B9607A603B6000237B
:10144C004FF4006217491848FFF794FC0346DAB2D0
:10145C00164B5A70154B5A78144B1A76134B1B7E3D
:10146C001846002300930823114A0F49FFF704FD87
:10147C000E4B00221A610F4B1B680C4AD3600B4AAF
:10148C007B681362094AFB685360084ABB68936027
:10149C00064A3B685362054B00221A7000BF103796
:1014AC00BD4680BD4006002058810008480E002033
:1014BC00400E0020041000E080B483B000AF7860D0
:1014CC00034A7B68136100BF0C37BD4680BC704774
:1014DC00480E002080B584B000AF7860EFF3118324
:1014EC004FF0200181F31188FB600848FFF746FD9F
:1014FC00B8607A68B968B868FFF72CFEFB6883F3AC
:10150C00118800BF1037BD4680BD00BF780E00208B
:10151C0080B588B000AF78603960EFF311834FF07D
:10152C00200181F311887B611648FFF727FD386194
:10153C003B69FB60FB68FB613B68BB610BE0BB6913
:10154C00DAB2FB69591CF96162F07F02D2B21A70EF
:10155C00BB69DB09BB61BB697F2BF0D8FB695A1CEB
:10156C00FA61BA69D2B21A70FB69FB607A68F968E1
:10157C003869FFF7EFFD7B6983F3118800BF2037D3
:10158C00BD4680BD780E002080B58CB000AFF860F1
:10159C00B9607A60EFF311834FF0200181F3118869
:1015AC00FB612548FFF7EAFCB861BB697B617B698D
:1015BC00FB62BB68BB620BE0BB6ADAB2FB6A591C0C
:1015CC00F96262F07F02D2B21A70BB6ADB09BB62AD
:1015DC00BB6A7F2BF0D8FB6A5A1CFA62BA6AD2B289
:1015EC001A70FB6A7B617B697B627B683B620BE0F8
:1015FC003B6ADAB27B6A591C796262F07F02D2B222
:10160C001A703B6ADB093B623B6A7F2BF0D87B6A22
:10161C005A1C7A623A6AD2B21A707B6A7B61FA6897
:10162C007969B869FFF796FDFB6983F3118800BFF0
:10163C003037BD4680BD00BF780E002080B58CB021
:10164C0000AF584B01221A70EFF311834FF02001B9
:10165C0081F31188FB60534B5B780A225249184680
:10166C00FEF76EFDFB6883F311880A20FFF732FF4B
:10167C00EFF311834FF0200181F31188BB604B48CD
:10168C00FFF77CFC78607B683B603B68FB62454BFA
:10169C005B68BB620BE0BB6ADAB2FB6A591CF9628D
:1016AC0062F07F02D2B21A70BB6ADB09BB62BB6A02
:1016BC007F2BF0D8FB6A5A1CFA62BA6AD2B21A7043
:1016CC00FB6A3B603B687B62364B9B683B620BE082
:1016DC003B6ADAB27B6A591C796262F07F02D2B241
:1016EC001A703B6ADB093B623B6A7F2BF0D87B6A42
:1016FC005A1C7A623A6AD2B21A707B6A3B603B68B7
:10170C00FB61284B1B69BB610BE0BB69DAB2FB695F
:10171C00591CF96162F07F02D2B21A70BB69DB0905
:10172C00BB61BB697F2BF0D8FB695A1CFA61BA69A3
:10173C00D2B21A70FB693B603B687B6100233B6152
:10174C000BE03B69DAB27B69591C796162F07F026C
:10175C00D2B21A703B69DB093B613B697F2BF0D835
:10176C007B695A1C7A613A69D2B21A707B693B6008
:10177C00182239687868FFF7EDFCBB6883F3118891
:10178C00084B5B6A002B02D0064B5B6A984700F053
:10179C00EBF900F0B1F900F021FD00BF3037BD4688
:1017AC0080BD00BF480E0020D4810008780E0020B8
:1017BC0080B582B000AFEFF311834FF0200181F3BD
:1017CC0011887B600B48FFF7D9FB38600A4B1B78FC
:1017DC00002B07D00B2239683868FFF7BBFC064B8F
:1017EC0000221A707B6883F3118800BF0837BD464E
:1017FC0080BD00BF780E0020480E002080B58CB054
:10180C0000AFEFF311834FF0200181F31188FB60DF
:10181C004548FFF7B3FBB860BB687B607B68FB6235
:10182C00424B5B68BB620BE0BB6ADAB2FB6A591CC9
:10183C00F96262F07F02D2B21A70BB6ADB09BB623A
:10184C00BB6A7F2BF0D8FB6A5A1CFA62BA6AD2B216
:10185C001A70FB6A7B607B687B62344B9B683B62D3
:10186C000BE03B6ADAB27B6A591C796262F07F0248
:10187C00D2B21A703B6ADB093B623B6A7F2BF0D811
:10188C007B6A5A1C7A623A6AD2B21A707B6A7B60A3
:10189C007B68FB61254B1B69BB610BE0BB69DAB252
:1018AC00FB69591CF96162F07F02D2B21A70BB69F4
:1018BC00DB09BB61BB697F2BF0D8FB695A1CFA6151
:1018CC00BA69D2B21A70FB697B607B687B610023BA
:1018DC003B610BE03B69DAB27B69591C796162F0C0
:1018EC007F02D2B21A703B69DB093B613B697F2BEB
:1018FC00F0D87B695A1C7A613A69D2B21A707B694A
:10190C007B6018227968B868FFF724FCFB6883F3C6
:10191C001188064B5B6A002B02D0044B5B6A98471C
:10192C0000BF3037BD4680BD780E0020480E002029
:10193C0080B592B000AF7860EFF311834FF02001C7
:10194C0081F311887B616A48FFF718FB38613B69AA
:10195C00FB60FB687B647B681A68664B1B69D31A57
:10196C003B640BE03B6CDAB27B6C591C796462F023
:10197C007F02D2B21A703B6CDB093B643B6C7F2B51
:10198C00F0D87B6C5A1C7A643A6CD2B21A707B6CAD
:10199C00FB60FB68FB637B689B68BB630BE0BB6B0A
:1019AC00DAB2FB6B591CF96362F07F02D2B21A7087
:1019BC00BB6BDB09BB63BB6B7F2BF0D8FB6B5A1C7F
:1019CC00FA63BA6BD2B21A70FB6BFB607B685B6814
:1019DC0020221946F868FFF799FAF8600922F9688D
:1019EC003869FFF7B7FB3B69FB60FB687B637B687F
:1019FC001A68404B1B69D31A3B630BE03B6BDAB2A2
:101A0C007B6B591C796362F07F02D2B21A703B6B0C
:101A1C00DB093B633B6B7F2BF0D87B6B5A1C7A63E7
:101A2C003A6BD2B21A707B6BFB60FB68FB627B6813
:101A3C00DB68BB620BE0BB6ADAB2FB6A591CF96269
:101A4C0062F07F02D2B21A70BB6ADB09BB62BB6A5E
:101A5C007F2BF0D8FB6A5A1CFA62BA6AD2B21A709F
:101A6C00FB6AFB60FB687B627B681B693B620BE07B
:101A7C003B6ADAB27B6A591C796262F07F02D2B29D
:101A8C001A703B6ADB093B623B6A7F2BF0D87B6A9E
:101A9C005A1C7A623A6AD2B21A707B6AFB60FB6893
:101AAC00FB617B685B69BB610BE0BB69DAB2FB690C
:101ABC00591CF96162F07F02D2B21A70BB69DB0962
:101ACC00BB61BB697F2BF0D8FB695A1CFA61BA6900
:101ADC00D2B21A70FB69FB601522F9683869FFF7FE
:101AEC0039FB7B6983F3118800BF4837BD4680BD45
:101AFC00780E0020480E002080B500AF074B1B6A03
:101B0C00002B08D0054B1B6A5B68002B03D0034BE2
:101B1C001B6A5B68984700BF80BD00BF480E002061
:101B2C0080B586B000AF7860EFF311834FF02001E1
:101B3C0081F311887B610B48FFF720FA3861802212
:101B4C0079683869FFF7E2F9F8600E22F9683869AC
:101B5C00FFF700FB7B6983F3118800BF1837BD4684
:101B6C0080BD00BF780E002090B583B000AF154B40
:101B7C001B6A002B1AD0134B1B6A1B68002B15D049
:101B8C00104B1B6A1B689847C7E900013C68D7E9F2
:101B9C0000014FF000024FF000030A00002313462F
:101BAC001A4621460D20FFF7EFFC06E0064B1B689A
:101BBC0019460C20FFF7ACFC00BF00BF0C37BD462C
:101BCC0090BD00BF480E0020041000E080B586B028
:101BDC0000AFEFF311834FF0200181F31188FB600C
:101BEC001948FFF7CBF9B860BB687B60174B1B68D3
:101BFC00C3F308033B607B687B613B683B610BE094
:101C0C003B69DAB27B69591C796162F07F02D2B20E
:101C1C001A703B69DB093B613B697F2BF0D87B6910
:101C2C005A1C7A613A69D2B21A707B697B600222C3
:101C3C007968B868FFF78EFAFB6883F3118800BFE8
:101C4C001837BD4680BD00BF780E002004ED00E0C3
:101C5C0080B582B000AFEFF311834FF0200181F318
:101C6C0011887B600748FFF789F9386003223968CF
:101C7C003868FFF76FFA7B6883F3118800BF083769
:101C8C00BD4680BD780E002080B582B000AFEFF36A
:101C9C0011834FF0200181F311887B600748FFF717
:101CAC006DF93860122239683868FFF753FA7B688F
:101CBC0083F3118800BF0837BD4680BD780E002025
:101CCC0080B588B000AF7860EFF311834FF020013E
:101CDC0081F311887B611748FFF750F938613B6934
:101CEC00FB60FB68FB617B68BB610BE0BB69DAB234
:101CFC00FB69591CF96162F07F02D2B21A70BB69A0
:101D0C00DB09BB61BB697F2BF0D8FB695A1CFA61FC
:101D1C00BA69D2B21A70FB69FB601C22F968386987
:101D2C00FFF718FA7B6983F3118800BF2037BD4693
:101D3C0080BD00BF780E002080B58AB000AF7860FF
:101D4C003960EFF311834FF0200181F311887B612F
:101D5C002448FFF713F938613B69FB60FB687B6231
:101D6C007B683B620BE03B6ADAB27B6A591C796296
:101D7C0062F07F02D2B21A703B6ADB093B623B6AAB
:101D8C007F2BF0D87B6A5A1C7A623A6AD2B21A70EC
:101D9C007B6AFB60FB68FB613B68BB610BE0BB696A
:101DAC00DAB2FB69591CF96162F07F02D2B21A7087
:101DBC00BB69DB09BB61BB697F2BF0D8FB695A1C83
:101DCC00FA61BA69D2B21A70FB69FB601C22F9681D
:101DDC003869FFF7BFF97B6983F3118800BF283797
:101DEC00BD4680BD780E002080B582B000AFEFF309
:101DFC0011834FF0200181F311887B600748FFF7B6
:101E0C00BDF83860112239683868FFF7A3F97B6890
:101E1C0083F3118800BF0837BD4680BD780E0020C3
:101E2C0080B588B000AF7860EFF311834FF02001DC
:101E3C0081F311887B611948FFF7A0F838613B6981
:101E4C00FB60174B1B697A68D31A7B60FB68FB61DC
:101E5C007B68BB610BE0BB69DAB2FB69591CF961A9
:101E6C0062F07F02D2B21A70BB69DB09BB61BB693D
:101E7C007F2BF0D8FB695A1CFA61BA69D2B21A707E
:101E8C00FB69FB600822F9683869FFF763F97B6925
:101E9C0083F3118800BF2037BD4680BD780E00202B
:101EAC00480E002080B588B000AF7860EFF3118346
:101EBC004FF0200181F311887B611948FFF75EF820
:101ECC0038613B69FB60174B1B697A68D31A7B60DE
:101EDC00FB68FB617B68BB610BE0BB69DAB2FB6939
:101EEC00591CF96162F07F02D2B21A70BB69DB092E
:101EFC00BB61BB697F2BF0D8FB695A1CFA61BA69CC
:101F0C00D2B21A70FB69FB600422F9683869FFF7DA
:101F1C0021F97B6983F3118800BF2037BD4680BD52
:101F2C00780E0020480E002080B588B000AF786095
:101F3C00EFF311834FF0200181F311887B61194875
:101F4C00FFF71CF838613B69FB60174B1B697A681B
:101F5C00D31A7B60FB68FB617B68BB610BE0BB69E0
:101F6C00DAB2FB69591CF96162F07F02D2B21A70C5
:101F7C00BB69DB09BB61BB697F2BF0D8FB695A1CC1
:101F8C00FA61BA69D2B21A70FB69FB600622F96871
:101F9C003869FFF7DFF87B6983F3118800BF2037BE
:101FAC00BD4680BD780E0020480E002080B58AB05A
:101FBC0000AF78603960EFF311834FF0200181F3AB
:101FCC0011887B612748FEF7D9FF38613B69FB60BC
:101FDC00254B1B697A68D31A7B60FB687B627B6834
:101FEC003B620BE03B6ADAB27B6A591C796262F0A5
:101FFC007F02D2B21A703B6ADB093B623B6A7F2BD1
:10200C00F0D87B6A5A1C7A623A6AD2B21A707B6A2E
:10201C00FB60FB68FB613B68BB610BE0BB69DAB240
:10202C00FB69591CF96162F07F02D2B21A70BB696C
:10203C00DB09BB61BB697F2BF0D8FB695A1CFA61C9
:10204C00BA69D2B21A70FB69FB600722F968386969
:10205C00FFF780F87B6983F3118800BF2837BD46F2
:10206C0080BD00BF780E0020480E002080B483B0E5
:10207C0000AF7860044B1B697A68D31A18460C378A
:10208C00BD4680BC704700BF480E002080B58CB0A8
:10209C0000AF0346FB71404B1B68002B77D03E4BC7
:1020AC001B68FB620023BB6208E0FB6A1B69FB62D6
:1020BC00FB6A002B07D0BB6A0133BB62FB79BA6A9F
:1020CC009A42F2D300E000BFFB6A002B55D0EFF32D
:1020DC0011834FF0200181F311887B612F48FEF7AB
:1020EC004DFF38613B69FB60FB687B62FB793B62AF
:1020FC000BE03B6ADAB27B6A591C796262F07F02B0
:10210C00D2B21A703B6ADB093B623B6A7F2BF0D878
:10211C007B6A5A1C7A623A6AD2B21A707B6AFB608A
:10212C00FB68FB61FB6A9B68BB610BE0BB69DAB2C5
:10213C00FB69591CF96162F07F02D2B21A70BB695B
:10214C00DB09BB61BB697F2BF0D8FB695A1CFA61B8
:10215C00BA69D2B21A70FB69FB60FB6A1B688022F9
:10216C001946F868FEF7D2FEF8601622F96838694D
:10217C00FEF7F0FF7B6983F31188FB6A002B06D016
:10218C00FB6ADB68002B02D0FB6ADB68984700BF58
:10219C003037BD4680BD00BF700E0020780E002089
:1021AC0080B582B000AF0C4B1B68002B0FD00A4BD4
:1021BC001B687B607B68DB68002B02D07B68DB686C
:1021CC0098477B681B697B607B68002BF2D100BF52
:1021DC000837BD4680BD00BF700E002080B586B0AC
:1021EC0000AFEFF311834FF0200181F31188FB60F6
:1021FC001748FEF7C3FEB860BB687B607B687B61E9
:10220C00144B1B783B610BE03B69DAB27B69591CC0
:10221C00796162F07F02D2B21A703B69DB093B61D3
:10222C003B697F2BF0D87B695A1C7A613A69D2B230
:10223C001A707B697B601B227968B868FEF78AFF8D
:10224C00FB6883F3118800BF1837BD4680BD00BF03
:10225C00780E0020740E002080B58AB000AF786034
:10226C00EFF311834FF0200181F311887B61274834
:10227C00FEF784FE3861802279683869FEF746FEE5
:10228C00F860FB687B6201233B620BE03B6ADAB2CD
:10229C007B6A591C796262F07F02D2B21A703B6A77
:1022AC00DB093B623B6A7F2BF0D87B6A5A1C7A6253
:1022BC003A6AD2B21A707B6AFB60FB68FB6100233E
:1022CC00BB610BE0BB69DAB2FB69591CF96162F0C6
:1022DC007F02D2B21A70BB69DB09BB61BB697F2B71
:1022EC00F0D8FB695A1CFA61BA69D2B21A70FB6950
:1022FC00FB601A22F9683869FEF72CFF7B6983F3BF
:10230C00118800BF2837BD4680BD00BF780E002065
:10231C0080B582B000AF78607B6803F108027B68FF
:10232C005A607B684FF0FF329A607B6803F10802B9
:10233C007B68DA607B6803F108027B681A617B6852
:10234C0000221A6040F21910FFF7BAFC00BF0837E0
:10235C00BD4680BD80B582B000AF78607B6800223E
:10236C001A614FF48D70FFF7ABFC00BF0837BD4608
:10237C0080BD80B584B000AF786039607B685B68E5
:10238C00FB603B68FA685A60FB689A683B689A6025
:10239C00FB689B683A685A60FB683A689A603B68CD
:1023AC007A681A617B681B685A1C7B681A6040F259
:1023BC001B10FFF785FC00BF1037BD4680BD80B5F4
:1023CC0084B000AF786039603B681B68BB60BB6849
:1023DC00B3F1FF3F03D17B681B69FB600CE07B68AA
:1023EC000833FB6002E0FB685B68FB60FB685B68C2
:1023FC001B68BA689A42F6D2FB685A683B685A6006
:10240C003B685B683A689A603B68FA689A60FB685C
:10241C003A685A603B687A681A617B681B685A1C78
:10242C007B681A604FF48E70FFF74AFC00BF1037C0
:10243C00BD4680BD80B584B000AF78607B681B69F9
:10244C00FB607B685B687A6892689A607B689B68C3
:10245C007A6852685A60FB685B687A689A4203D162
:10246C007B689A68FB685A607B6800221A61FB687B
:10247C001B685A1EFB681A60FB681B68194640F201
:10248C001D10FFF759FCFB681B6818461037BD463A
:10249C0080BD000080B586B000AF78603960012344
:1024AC007B617B683B613B69002B0BD14FF0500388
:1024BC0083F31188BFF36F8FBFF34F8FFB6000BFA7
:1024CC0000BFFDE73B69002B5DD03B69DB6B002B4C
:1024DC0059D03B691A6C3B69DB6B0021A3FB0223CF
:1024EC00002B00D001210B46002B4CD102F0CEF872
:1024FC003B691A683B69DB6B3969096C01FB03F3B7
:10250C001A443B699A603B6900229A633B691A68DA
:10251C003B695A603B691A683B69DB6B013B396963
:10252C00096C01FB03F31A443B69DA603B69FF2237
:10253C0083F844203B69FF2283F845203B68002B3D
:10254C0014D13B691B69002B1AD03B691033184618
:10255C0001F07EF90346002B12D0184B4FF080523D
:10256C001A60BFF34F8FBFF36F8F09E03B691033D5
:10257C001846FFF7CDFE3B6924331846FFF7C8FE1B
:10258C0002F0B4F801E000237B617B69002B0BD1D6
:10259C004FF0500383F31188BFF36F8FBFF34F8F4E
:1025AC00BB6000BF00BFFDE77B6919469620FFF7B3
:1025BC00C3FB7B6918461837BD4680BD04ED00E0AF
:1025CC0080B58AB002AFF860B9601346FB71002386
:1025DC00FB61FB68002B2ED00021BA68FB68A3FBC3
:1025EC000223002B00D001210B46002B23D1FB68CA
:1025FC00BA6802FB03F313F1510F1CD8FB68BA68DD
:10260C0002FB03F3BB61BB695033184602F048F977
:10261C00F861FB69002B1DD0FB697B617B69503332
:10262C007B61FA79FB69009313467A69B968F8689B
:10263C0000F01EF80EE0FB69002B0BD14FF050039D
:10264C0083F31188BFF36F8FBFF34F8F3B6100BFD4
:10265C0000BFFDE7FB691846FFF708FD0346194666
:10266C009820FFF769FBFB6918462037BD4680BDF3
:10267C0080B584B000AFF860B9607A60FB70BB685D
:10268C00002B03D1BB69BA691A6002E0BB697A6896
:10269C001A60BB69FA68DA63BB69BA681A6401210B
:1026AC00B869FFF7F7FEBB69FA7883F84C2000BFD6
:1026BC001037BD4680BD000080B58CB000AFF8600F
:1026CC00B9607A600023FB62FB68BB62BB6A002BBB
:1026DC000BD14FF0500383F31188BFF36F8FBFF30F
:1026EC004F8F3B6200BF00BFFDE7BB68002B03D1DF
:1026FC00BB6A1B6C002B01D1012300E00023002BD3
:10270C000BD14FF0500383F31188BFF36F8FBFF3DE
:10271C004F8FFB6100BF00BFFDE701F011FB0346CB
:10272C00002B02D17B68002B01D1012300E0002398
:10273C00002B0BD14FF0500383F31188BFF36F8F35
:10274C00BFF34F8FBB6100BF00BFFDE701F09EFFE1
:10275C00BB6A9B6B7B627B6A002B23D0B968B86A1F
:10276C0000F098F87B6A5A1EBB6A9A63BB6A1B69B5
:10277C00002B0FD0BB6A1033184601F069F80346E2
:10278C00002B07D0424B4FF080521A60BFF34F8F93
:10279C00BFF36F8F01F0AAFF0121A420FFF7CCFA41
:1027AC00012371E07B68002B07D101F09FFF002112
:1027BC00A420FFF7C1FA002366E0FB6A002B06D1C8
:1027CC0007F11003184601F023F90123FB6201F015
:1027DC008DFF00F0D9FC01F059FFBB6A93F844302F
:1027EC005BB2B3F1FF3F03D1BB6A002283F84420F4
:1027FC00BB6A93F845305BB2B3F1FF3F03D1BB6AC0
:10280C00002283F8452001F071FF3A1D07F11003F7
:10281C001146184601F014F90346002B23D1B86A6F
:10282C0000F0B0F80346002B17D0BB6A24337A684B
:10283C001146184600F09AFFB86A00F051F800F003
:10284C00B1FC0346002B81D1114B4FF080521A6022
:10285C00BFF34F8FBFF36F8F78E7B86A00F040F883
:10286C0000F0A0FC72E7B86A00F03AF800F09AFCAD
:10287C00B86A00F087F80346002B3FF467AF0021DD
:10288C00A420FFF759FA002318463037BD4680BD07
:10289C0004ED00E080B582B000AF786039607B68F1
:1028AC001B6C002B18D07B68DA687B681B6C1A4495
:1028BC007B68DA607B68DA687B689B689A4203D332
:1028CC007B681A687B68DA607B68D9687B681B6CEC
:1028DC001A46386805F0A4F900BF0837BD4680BD1C
:1028EC0080B584B000AF786001F0D0FE7B6893F8BF
:1028FC004530FB7311E07B685B6A002B12D07B6860
:10290C002433184600F0A4FF0346002B01D001F03D
:10291C0013F9FB7B013BDBB2FB7397F90F30002BF8
:10292C00E9DC00E000BF7B68FF2283F8452001F062
:10293C00DDFE01F0ABFE7B6893F84430BB7311E015
:10294C007B681B69002B12D07B681033184600F093
:10295C007FFF0346002B01D001F0EEF8BB7B013B5F
:10296C00DBB2BB7397F90E30002BE9DC00E000BF43
:10297C007B68FF2283F8442001F0B8FE00BF1037BB
:10298C00BD4680BD80B584B000AF786001F07EFE9E
:10299C007B689B6B002B02D10123FB6001E00023C1
:1029AC00FB6001F0A3FEFB6818461037BD4680BDE6
:1029BC0080B586B000AF7860396000233B617B68DE
:1029CC00002B0BD14FF0500383F31188BFF36F8FA3
:1029DC00BFF34F8FFB6000BF00BFFDE73B68002BD0
:1029EC0024D000237B611EE0184A7B69DB00134472
:1029FC005B687A689A4205D17B69DB00134A134401
:102A0C003B6113E03B69002B0AD1104A7B6952F8F9
:102A1C003330002B04D17B69DB000C4A13443B613F
:102A2C007B6901337B617B69072BDDD93B69002B0B
:102A3C0005D03B693A681A603B697A685A60B620DF
:102A4C00FFF73EF900BF1837BD4680BD5C0F002074
:102A5C0080B586B000AFF860B9607A60FB687B61C6
:102A6C0001F014FE7B6993F844305BB2B3F1FF3F85
:102A7C0003D17B69002283F844207B6993F84530AD
:102A8C005BB2B3F1FF3F03D17B69002283F8452091
:102A9C0001F02CFE7B699B6B002B06D17B692433E8
:102AAC007A68B968184600F089FE7869FFF718FF54
:102ABC00B920FFF705F900BF1837BD4680BD80B5BA
:102ACC008AB004AFF860B9607A603B607B689B00A9
:102ADC00184601F0E5FE38613B69002B13D06820E5
:102AEC0001F0DEFE78617B69002B08D068220021A2
:102AFC00786905F063F87B693A691A6305E038690F
:102B0C0002F006F801E000237B617B69002B0DD0FD
:102B1C00002303937B6902937B6A01933B6A0093C6
:102B2C003B687A68B968F86800F02DF87B6918463C
:102B3C001837BD4680BD80B588B002AFF860B9606B
:102B4C007A603B607B6A01933B6A00933B687A68CE
:102B5C00B968F868FFF7B3FF38613B69002B05D003
:102B6C00386900F0A1F801237B6102E04FF0FF33DC
:102B7C007B617B691946C220FFF7DEF87B6918463A
:102B8C001837BD4680BD80B588B000AFF860B9601D
:102B9C007A603B603B6B186B7B689B001A46A521E7
:102BAC0005F00CF83B6B1A6B7B6803F18043013B1F
:102BBC009B001344BB61BB6923F00703BB61BB697A
:102BCC0003F00703002B0BD04FF0500383F3118855
:102BDC00BFF36F8FBFF34F8F7B6100BF00BFFDE76B
:102BEC00BB68002B1ED00023FB6112E0BA68FB69A6
:102BFC00134419783A6BFB69134434330A461A7040
:102C0C00BA68FB6913441B78002B06D0FB690133AF
:102C1C00FB61FB69132BE9D900E000BF3B6B002281
:102C2C0083F84720BB6A042B0BD94FF0500383F376
:102C3C001188BFF36F8FBFF34F8F3B6100BF00BF95
:102C4C00FDE7BB6A042B01D90423BB623B6BBA6A58
:102C5C00DA623B6BBA6A1A653B6B04331846FFF7B2
:102C6C0079FB3B6B18331846FFF774FB3B6B3A6BE5
:102C7C001A61BB6AC3F105023B6B9A613B6B3A6B01
:102C8C005A623A68F968B86901F0C4FB02463B6BBA
:102C9C001A60FB6A002B02D0FB6A3A6B1A6000BF09
:102CAC002037BD4680BD0000B0B586B002AF78605D
:102CBC0001F0ECFC504B1B6801334F4A13604F4B37
:102CCC001B68002B09D14D4A7B6813604A4B1B686B
:102CDC00012B10D100F054FF0DE0494B1B68002B69
:102CEC0009D1464B1B68DA6A7B68DB6A9A4202D8C8
:102CFC00424A7B681360434B1B680133414A1360A3
:102D0C00404B1A687B689A647B68002B16D07B68F2
:102D1C001846FFF785F878687B6803F134017B6807
:102D2C00DA6A7B681B6B1D467B681B681C467B68DC
:102D3C001B6BE31A00932B46FDF7F8FD7B681846D6
:102D4C00FFF7F2F87B68DB6A01229A402E4B1B6876
:102D5C0013432D4A13607B68DA6A2C4913469B0097
:102D6C0013449B000B4404331B68FB607B68FA68BC
:102D7C009A60FB689A687B68DA60FB689B687A6883
:102D8C0004325A607B681A1DFB689A607B68DA6AA9
:102D9C0013469B0013449B001C4A1A447B685A61DF
:102DAC007B68DA6A194913469B0013449B000B4459
:102DBC001B687A68D26A591C144813469B0013444A
:102DCC009B000344196001F091FC0D4B1B68002B18
:102DDC000ED00A4B1B68DA6A7B68DB6A9A4207D210
:102DEC000B4B4FF080521A60BFF34F8FBFF36F8FB6
:102DFC0000BF1037BD46B0BD741000209C0F0020E2
:102E0C0080100020901000207C100020A00F0020CB
:102E1C0004ED00E080B588B000AF78600023FB6162
:102E2C0001F034FC7B68002B02D1574B1B6800E08F
:102E3C007B68BB61BB69002B0BD14FF0500383F354
:102E4C001188BFF36F8FBFF34F8F3B6100BF00BF83
:102E5C00FDE7BB6904331846FFF7ECFA0346002B79
:102E6C0015D1BB69DA6A494913469B0013449B0090
:102E7C000B441B68002B0AD1BB69DB6A012202FAE6
:102E8C0003F3DA43424B1B681340414A1360BB699E
:102E9C009B6A002B04D0BB6918331846FFF7CAFA9B
:102EAC003C4B1B6801333B4A1360374B1B68BA69B8
:102EBC009A4201D1012300E000237B61364B1B6851
:102ECC00002B1DD07B69002B1AD0BB69043319462B
:102EDC003248FFF74EFA324B1B680133304A13600D
:102EEC00BB691846FFF7C2F803461946C320FEF724
:102EFC000FFBBB691846FDF781FD0123FB6113E055
:102F0C00284B1B68013B274A1360BB691846FFF727
:102F1C00ADF803461946C320FEF7FAFABB6918460A
:102F2C00FDF76CFD00F0F2FE01F0E0FBFB69012BFC
:102F3C0002D0B86900F0DAFE174B1B68002B1CD0CE
:102F4C00114B1B68BA699A4217D1174B1B68002B9F
:102F5C000BD04FF0500383F31188BFF36F8FBFF387
:102F6C004F8FFB6000BF00BFFDE7104B4FF080524E
:102F7C001A60BFF34F8FBFF36F8FC320FEF7A0FE15
:102F8C0000BF2037BD4680BD9C0F0020A00F002045
:102F9C007C10002090100020801000204810002091
:102FAC005C100020741000209C10002004ED00E048
:102FBC0080B584B000AF78600023FB607B68002B89
:102FCC0018D000F0E1F8144B1B68012B0BD04FF01C
:102FDC00500383F31188BFF36F8FBFF34F8FBB6028
:102FEC0000BF00BFFDE70021786800F0CBFE00F0C9
:102FFC00D9F8F860FB68002B07D1084B4FF08052D2
:10300C001A60BFF34F8FBFF36F8FC520FEF758FECA
:10301C0000BF1037BD4680BD9C10002004ED00E0C1
:10302C0080B58CB002AF01237B6200237B6007F17B
:10303C00080300221A605A609A60DA600023BB61B0
:10304C000023FB6111E01F4AFB69134419783A1DF8
:10305C00FB6913440A461A703A1DFB6913441B782A
:10306C00002B06D0FB690133FB61FB69122BEAD9FB
:10307C0000E000BF3A1DFB69134400221A700023C4
:10308C003B6215E0104BBB613B6A9B000F4A13443B
:10309C00391D01930023009300238022B869FFF7A8
:1030AC004AFD78627B6A012B06D13B6A01333B6295
:1030BC003B6A002BE6DD00E000BF7B6A1846283730
:1030CC00BD4680BD608100085D3B00089810002063
:1030DC0080B584B000AFFFF7A3FFF860FB68012B4D
:1030EC0002D100F0E1FEF860FB68012B26D14FF015
:1030FC00500383F31188BFF36F8FBFF34F8FBB6007
:10310C0000BF1B4B4FF0FF321A601A4B01221A60A2
:10311C00194B00221A6002F011F8184B1A68184B60
:10312C001B689A4202D1FEF75FFE04E0144B1B6849
:10313C001846FEF7B7FE01F0EBF90FE0FB68B3F1B0
:10314C00FF3F0BD14FF0500383F31188BFF36F8F08
:10315C00BFF34F8F7B6000BF00BFFDE7094B1B68BF
:10316C00CD20FEF7ADFD00BF1037BD4680BD00BFC2
:10317C00941000208010002078100020981000205F
:10318C009C0F00200000002080B500AF044B1B6892
:10319C000133034A1360CF20FEF792FD00BF80BDC0
:1031AC009C10002080B588B000AF0023FB61002389
:1031BC00BB6101F06BFA00233B617A4B1B68002B5F
:1031CC000BD14FF0500383F31188BFF36F8FBFF314
:1031DC004F8F3B6000BF00BFFDE7724B1B68013B8C
:1031EC00704A13606F4B1B68002B40F0CE806E4B07
:1031FC001B68002B00F0C98092E06C4BDB68DB682D
:10320C00FB61FB699B6AFB60FB69DB69FA69126A0B
:10321C009A60FB691B6AFA69D2695A60FB685A6842
:10322C00FB6918339A4203D1FB691A6AFB685A602E
:10323C00FB6900229A62FB681B685A1EFB681A60C5
:10324C00FB695B69BB60FB699B68FA69D2689A6031
:10325C00FB69DB68FA6992685A60BB685A68FB695B
:10326C0004339A4203D1FB69DA68BB685A60FB6984
:10327C0000225A61BB681B685A1EBB681A60FB6946
:10328C001846FEF751FEFB69DB6A01229A40484B57
:10329C001B681343464A1360FB69DA6A45491346B7
:1032AC009B0013449B000B4404331B687B60FB693D
:1032BC007A689A607B689A68FB69DA607B689B68BD
:1032CC00FA6904325A60FB691A1D7B689A60FB69C3
:1032DC00DA6A13469B0013449B00364A1A44FB6976
:1032EC005A61FB69DA6A334913469B0013449B000D
:1032FC000B441B68FA69D26A591C2E4813469B0072
:10330C0013449B0003441960FB69DA6A2A4B1B685F
:10331C00DB6A9A4204D9294A3B69012142F82310FD
:10332C00224B1B68002B7FF468AFFB69002B01D08C
:10333C0000F0ECFC224B1B687B617B69002B12D0EC
:10334C0000F06AF80346002B04D01C4A3B690121AB
:10335C0042F823107B69013B7B617B69002BEFD129
:10336C00174B00221A60154A3B6952F82330002B88
:10337C000BD00123BB61104B1B68124B4FF08052DA
:10338C001A60BFF34F8FBFF36F8F01F0AFF9BB69BA
:10339C001946D020FEF7D0FCBB6918462037BD4635
:1033AC0080BD00BF9C100020741000203410002041
:1033BC007C100020A00F00209C0F00208810002003
:1033CC008410002004ED00E080B582B000AF064B05
:1033DC001B687B607968D120FEF7AEFC7B681846D1
:1033EC000837BD4680BD00BF7810002080B582B084
:1033FC0000AF01F015FA00237B60064B1B683B60A5
:10340C003968D220FEF798FC3B6818460837BD4651
:10341C0080BD00BF7810002080B58AB000AF0023BB
:10342C007B62834B1B68002B40F0F380814B1B6845
:10343C0001333B627F4A3B6A13603B6A002B21D10C
:10344C007D4B1B681B68002B0BD04FF0500383F394
:10345C001188BFF36F8FBFF34F8F7B6000BF00BF2E
:10346C00FDE7754B1B68FB61744B1B68724A13605C
:10347C00724AFB691360724B1B680133704A13600C
:10348C0000F044FC6F4B1B683A6A9A42C0F0AC8067
:10349C00694B1B681B68002B04D16A4B4FF0FF3241
:1034AC001A60A1E0644B1B68DB68DB68BB61BB691D
:1034BC005B687B613A6A7B699A4203D2614A7B6999
:1034CC00136091E0BB695B693B61BB699B68BA693E
:1034DC00D2689A60BB69DB68BA6992685A603B69CA
:1034EC005A68BB6904339A4203D1BB69DA683B69F9
:1034FC005A60BB6900225A613B691B685A1E3B69C2
:10350C001A60BB699B6A002B1ED0BB699B6AFB606F
:10351C00BB69DB69BA69126A9A60BB691B6ABA69D2
:10352C00D2695A60FB685A68BB6918339A4203D156
:10353C00BB691A6AFB685A60BB6900229A62FB6815
:10354C001B685A1EFB681A60BB691846FEF7ECFC38
:10355C00BB69DB6A01229A403B4B1B6813433A4A16
:10356C001360BB69DA6A394913469B0013449B000C
:10357C000B4404331B68BB60BB69BA689A60BB68B8
:10358C009A68BB69DA60BB689B68BA6904325A6096
:10359C00BB691A1DBB689A60BB69DA6A13469B004B
:1035AC0013449B00294A1A44BB695A61BB69DA6A05
:1035BC00264913469B0013449B000B441B68BA69B5
:1035CC00D26A591C214813469B0013449B000344A8
:1035DC001960BB69DA6A1E4B1B68DB6A9A427FF67C
:1035EC0057AF01237B6253E7194B1B68DA6A174903
:1035FC0013469B0013449B000B441B68012B01D901
:10360C0001237B62134B1B68002B07D001237B62C9
:10361C0004E0114B1B6801330F4A13607B6A194697
:10362C00DB20FEF789FB7B6A18462837BD4680BD38
:10363C009C100020781000202C100020301000204E
:10364C008C100020941000207C100020A00F002073
:10365C009C0F0020881000208410002080B586B0BC
:10366C0000AF3A4B1B68002B03D0394B01221A6078
:10367C0068E0374B00221A6001F08AFD0346354A98
:10368C001360344B1A68344B1B689A4209D9314B7E
:10369C001A68314B1B68D11A304B1B68DA6D0A441F
:1036AC00DA652C4B1B682C4A13602D4B1B68FB6096
:1036BC00FB68B3FA83F3FB72FB7AC3F11F037B61E4
:1036CC0028497A6913469B0013449B000B441B68E2
:1036DC00002B0BD14FF0500383F31188BFF36F8F86
:1036EC00BFF34F8F7B6000BF00BFFDE77A691346C5
:1036FC009B0013449B001B4A13443B613B695B6872
:10370C005A683B695A603B695A683B6908339A426C
:10371C0003D13B69DA683B695A603B695B68DB68DB
:10372C000E4A1360104B1A680C4B1B689A4202D15C
:10373C00FEF75AFB04E0094B1B681846FEF7B2FB78
:10374C00064B1B6800BF1837BD4680BD9C1000207F
:10375C0088100020A4100020A01000209C0F002036
:10376C007C100020A00F00209810002080B584B0A1
:10377C0000AF786039607B68002B0BD14FF05003A1
:10378C0083F31188BFF36F8FBFF34F8FFB6000BFC4
:10379C0000BFFDE7084B1B68183319467868FEF725
:1037AC000EFE0121386800F0EDFAE120FEF788FAF0
:1037BC0000BF1037BD4680BD9C0F002080B586B081
:1037CC0000AFF860B9607A60FB68002B0BD14FF04A
:1037DC00500383F31188BFF36F8FBFF34F8F3B619F
:1037EC0000BF00BFFDE7FB685B687B61174B1B6884
:1037FC007A69DA61154B1B687A6992681A62134B05
:10380C001A687B699B6818325A60104B1B6803F16D
:10381C0018027B699A600D4B1B68FA689A62FB6808
:10382C001B685A1CFB681A607B68002B02D04FF097
:10383C00FF33BB607968B86800F0A4FAE320FEF7A8
:10384C003FFA00BF1837BD4680BD00BF9C0F00205B
:10385C0080B58AB000AF78607B68DB68DB683B6260
:10386C003B6A002B0BD14FF0500383F31188BFF34D
:10387C006F8FBFF34F8FFB6000BF00BFFDE73B6A4C
:10388C009B6AFB613B6ADB693A6A126A9A603B6A23
:10389C001B6A3A6AD2695A60FB695A683B6A1833E8
:1038AC009A4203D13B6A1A6AFB695A603B6A00224E
:1038BC009A62FB691B685A1EFB691A604E4B1B68A7
:1038CC00002B64D13B6A5B697B613B6A9B683A6AFB
:1038DC00D2689A603B6ADB683A6A92685A607B6984
:1038EC005A683B6A04339A4203D13B6ADA687B69B3
:1038FC005A603B6A00225A617B691B685A1E7B69BD
:10390C001A603B6A1846FEF70FFB3B6ADB6A012222
:10391C009A403A4B1B681343384A13603B6ADA6A85
:10392C00374913469B0013449B000B4404331B681C
:10393C003B613B6A3A699A603B699A683B6ADA6018
:10394C003B699B683A6A04325A603B6A1A1D3B69B0
:10395C009A603B6ADA6A13469B0013449B00284A20
:10396C001A443B6A5A613B6ADA6A254913469B0042
:10397C0013449B000B441B683A6AD26A591C2048BA
:10398C0013469B0013449B00034419601BE01D4B22
:10399C005B68BB613B6ABA69DA61BB699A683B6A6E
:1039AC001A62BB699B683A6A18325A603B6A03F127
:1039BC001802BB699A603B6A124A9A62114B1B68E7
:1039CC000133104A13603B6ADA6A0F4B1B68DB6ADF
:1039DC009A4205D901237B620C4B01221A6001E04B
:1039EC0000237B627B6A1946E420FEF7A5F97B6A0B
:1039FC0018462837BD4680BD9C1000207C10002046
:103A0C00A00F0020341000209C0F002088100020F4
:103A1C0080B582B000AF7860074B1A687B681A607B
:103A2C00064B1A687B685A60E720FEF749F900BF1D
:103A3C000837BD4680BD00BF8C10002078100020D8
:103A4C0080B588B000AF786039607B68002B0BD1F3
:103A5C004FF0500383F31188BFF36F8FBFF34F8F79
:103A6C003B6100BF00BFFDE73B68002B0BD14FF063
:103A7C00500383F31188BFF36F8FBFF34F8FFB603D
:103A8C0000BF00BFFDE700F001FE284B1B68BB61C7
:103A9C007B685B68BA69D31A7B61254B1B6893F80A
:103AAC006530002B07D0224B1B68002283F8652061
:103ABC000123FB612EE03B681B68B3F1FF3F02D191
:103ACC000023FB6126E07B681A681A4B1B689A423C
:103ADC000AD07B685B68BA699A4205D30123FB6103
:103AEC003B6800221A6015E03B681B687A699A42B1
:103AFC000BD23B681A687B69D21A3B681A607868EB
:103B0C00FFF786FF0023FB6104E03B6800221A608C
:103B1C000123FB6100F0EAFDFB691946E820FEF782
:103B2C000BF9FB6918462037BD4680BD7810002084
:103B3C009C0F00208C10002080B500AF034B01229D
:103B4C001A60E920FEF7BCF800BF80BD8810002089
:103B5C0080B582B000AF786000F052F8064B1B685D
:103B6C00012BF9D9054B4FF080521A60BFF34F8FE0
:103B7C00BFF36F8FF0E700BFA00F002004ED00E053
:103B8C0080B582B000AF00237B600CE07A681346EE
:103B9C009B0013449B00124A13441846FEF7B8FBD3
:103BAC007B6801337B607B68042BEFD90D48FEF7F3
:103BBC00AFFB0D48FEF7ACFB0C48FEF7A9FB0C481D
:103BCC00FEF7A6FB0B48FEF7A3FB0B4B054A1A604E
:103BDC000A4B054A1A6000BF0837BD4680BD00BFBE
:103BEC00A00F00200410002018100020341000201A
:103BFC0048100020601000202C10002030100020F5
:103C0C0080B582B000AF19E000F040FD104BDB68CE
:103C1C00DB687B607B6804331846FEF70BFC0D4BAE
:103C2C001B68013B0B4A13600B4B1B68013B0A4A98
:103C3C00136000F05BFD786800F058F8064B1B68C9
:103C4C00002BE1D100BF00BF0837BD4680BD00BFCF
:103C5C0048100020741000205C10002080B485B047
:103C6C0000AF78600023FB6005E07B6801337B606C
:103C7C00FB680133FB607B681B78A52BF5D0FB68D8
:103C8C009B08FB60FB6818461437BD4680BC704728
:103C9C0080B586B000AF78607B68002B02D1124BE8
:103CAC001B6800E07B687B617B69002B0BD14FF0BC
:103CBC00500383F31188BFF36F8FBFF34F8FBB603B
:103CCC0000BF00BFFDE77B691B6B3B613869FFF7E9
:103CDC00C5FFF860F968F220FEF72EF8FB6818466D
:103CEC001837BD4680BD00BF9C0F002080B582B048
:103CFC0000AF78607B681B6B184600F009FF786892
:103D0C0000F006FF00BF0837BD4680BD80B400AF91
:103D1C00094B1B681B68002B04D1084B4FF0FF327A
:103D2C001A6005E0044B1B68DB681B68034A1360D0
:103D3C0000BFBD4680BC70472C10002094100020A2
:103D4C0080B582B000AF0D4B1B68002B02D1012354
:103D5C007B6008E00A4B1B68002B02D102237B60BE
:103D6C0001E000237B607B681946F520FDF7E4FF3A
:103D7C007B6818460837BD4680BD00BF8010002008
:103D8C009C10002080B588B000AF786039603F4B44
:103D9C001B68FB613E4B1B68BB613E4B1B687B6128
:103DAC003D4B1B68002283F865203B4B1B6804339A
:103DBC001846FEF73FFB0346002B0BD1364B1B6816
:103DCC00DB6A012202FA03F3DA43344B1B6813401B
:103DDC00324A13607B68B3F1FF3F24D13B68002B60
:103DEC0021D02F4B5B683B612B4B1B683A699A6067
:103DFC00294B1B683A699268DA60274B1A683B6951
:103E0C009B6804325A60244B1B681A1D3B699A60EC
:103E1C00214B1B68224A5A61214B1B680133204AF3
:103E2C00136000BF2EE0FA697B681344FB601A4BE9
:103E3C001B68FA685A60FA68FB699A420DD2164BF5
:103E4C001B6804211846FEF7B1F8134B1B680433AA
:103E5C0019467869FEF7B3FA14E00F4B1B6804217E
:103E6C001846FEF7A3F80C4B1B6804331946B869C7
:103E7C00FEF7A5FA0B4B1B68FA689A4202D2094A64
:103E8C00FB68136000BF2037BD4680BD7810002052
:103E9C002C100020301000209C0F00207C100020E3
:103EAC00601000209410002080B584B002AF002375
:103EBC007B6000F079FA154B1B68002B0BD0144B70
:103ECC0001930223009300234FF48072114912488E
:103EDC00FEF731FE78607B68002B0BD14FF050035E
:103EEC0083F31188BFF36F8FBFF34F8F3B6000BF1D
:103EFC0000BFFDE77B6819464FF48470FDF71CFF8B
:103F0C007B6818460837BD4680BD00BFD81000201E
:103F1C00DC10002090810008CD3F000880B584B0F3
:103F2C0000AFF860B9607A6008E0FB689B69BA681A
:103F3C001344BB60FB681B6AF8689847FB689A6976
:103F4C00BB68D118BB687A68F86800F0DDF80346E6
:103F5C00002BEAD100BF00BF1037BD4680BD00006A
:103F6C0080B584B000AF78603960144B1B68DB6897
:103F7C00DB68FB60FB6804331846FEF75BFAFB68F2
:103F8C0093F8283003F00403002B05D03A687968C5
:103F9C00F868FFF7C3FF08E0FB6893F8283023F0BC
:103FAC000103DAB2FB6883F82820FB681B6AF86807
:103FBC00984700BF1037BD4680BD00BFD010002011
:103FCC0080B584B000AF786007F10803184600F0A4
:103FDC0059F8F860BB681946F86800F005F800F06D
:103FEC00D5F800BFF0E7000080B584B000AF786072
:103FFC003960FFF7C9F807F10803184600F064F8B8
:10400C00F860BB68002B30D13B68002B0AD17A6872
:10401C00FB689A4206D8FFF7C5F8F9687868FFF78D
:10402C009FFF24E03B68002B08D0134B1B681B68D8
:10403C00002B01D1012300E000233B600F4B1868DB
:10404C007A68FB68D31A3A681946FEF701FDFFF748
:10405C00A9F80346002B0AD1094B4FF080521A6085
:10406C00BFF34F8FBFF36F8F01E0FFF79BF800BFDB
:10407C001037BD4680BD00BFD4100020D8100020E2
:10408C0004ED00E080B485B000AF78600D4B1B6888
:10409C001B68002B01D1012200E000227B681A6012
:1040AC007B681B68002B05D1064B1B68DB681B6803
:1040BC00FB6001E00023FB60FB6818461437BD462B
:1040CC0080BC7047D010002080B584B000AF786001
:1040DC00FFF77AF9F8600B4B1B68FA689A4205D225
:1040EC0000F03CF97B6801221A6002E07B68002238
:1040FC001A60044AFB681360FB6818461037BD460B
:10410C0080BD00BFE010002080B586B000AFF86025
:10411C00B9607A603B6000237B61FB68BA685A60C7
:10412C00FB68FA681A61BA687B689A4212D87A6896
:10413C003B68D21AFB689B699A4202D301237B61CC
:10414C001BE0104B1A68FB68043319461046FEF747
:10415C0036F912E07A683B689A4206D2BA683B6834
:10416C009A4202D301237B6107E0074B1A68FB6874
:10417C00043319461046FEF722F97B6918461837A6
:10418C00BD4680BDD4100020D010002080B58AB070
:10419C0000AF3B1D00221A605A609A60DA60CBE0D7
:1041AC007B68002B19DA3B1D04337B627B6A002B86
:1041BC000BD14FF0500383F31188BFF36F8FBFF314
:1041CC004F8FBB6100BF00BFFDE77B6A1B687A6A3B
:1041DC0050687A6A9268114698477B68002BC0F247
:1041EC00AB80FB683B623B6A002B00F0A5803B6A0E
:1041FC005B69002B04D03B6A04331846FEF71AF9AE
:10420C003B461846FFF760FFF8617B68013B082BC3
:10421C0000F28F8001A252F823F000BF4D4200083B
:10422C004D420008B5420008C94200081543000879
:10423C004D4200084D420008B5420008C942000832
:10424C003B6A93F8283043F00103DAB23B6A83F8F7
:10425C002820BA683B6A9B69D118BB68FA69386A2E
:10426C00FFF752FF0346002B65D03B6A93F82830CA
:10427C0003F00403002B09D0BA683B6A9B69134412
:10428C00FA691946386AFFF749FE08E03B6A93F869
:10429C00283023F00103DAB23B6A83F828203B6A0A
:1042AC001B6A386A984746E03B6A93F8283023F03B
:1042BC000103DAB23B6A83F828203DE03B6A93F8AD
:1042CC00283043F00103DAB23B6A83F82820BA683D
:1042DC003B6A9A613B6A9B69002B0BD14FF05003F0
:1042EC0083F31188BFF36F8FBFF34F8F7B6100BFD8
:1042FC0000BFFDE73B6A9A69FB69D118FB69FA6953
:10430C00386AFFF701FF17E03B6A93F8283003F097
:10431C000203002B03D1386A00F0FAFB0CE03B6A75
:10432C0093F8283023F00103DAB23B6A83F8282093
:10433C0002E000BF00E000BF074B1B68391D0022E4
:10434C001846FEF7B9F90346002B7FF429AF00BFDE
:10435C0000BF2837BD4680BDD810002080B582B084
:10436C0000AF09E00E4B1B68DB681B683B604FF02D
:10437C00FF313868FFF7F4FD094B1B681B68002BF5
:10438C00F0D1074B1B687B60064B1B68044A13601B
:10439C00044A7B68136000BF0837BD4680BD00BF70
:1043AC00D0100020D410002080B500AF00F06EF9C2
:1043BC00124B1B68002B1DD11148FDF7A9FF1148AA
:1043CC00FDF7A6FF104B0E4A1A60104B0D4A1A60EF
:1043DC00002210210A20FEF7F3F80346074A136067
:1043EC00064B1B68002B05D0044B1B68084918466C
:1043FC00FEF7DEFA00F07AF900BF80BDD81000207D
:10440C00A8100020BC100020D0100020D4100020D8
:10441C009881000880B485B000AFF860B9607A600C
:10442C00FB68043BFB60FB684FF080721A60FB6812
:10443C00043BFB60BB6823F00102FB681A60FB685D
:10444C00043BFB60084AFB681A60FB68143BFB608A
:10445C007A68FB681A60FB68203BFB60FB681846B7
:10446C001437BD4680BC70477944000880B485B0D1
:10447C0000AF00237B60124B1B68B3F1FF3F0BD0E6
:10448C004FF0500383F31188BFF36F8FBFF34F8F3F
:10449C00FB6000BF00BFFDE74FF0500383F31188B2
:1044AC00BFF36F8FBFF34F8FBB6000BF00BF7B6844
:1044BC00002BFCD000BF00BF1437BD4680BC70473A
:1044CC0004000020074B19680868B0E8F00F80F36F
:1044DC000988BFF36F8F4FF0000080F311884EF006
:1044EC000D0E70479C0F002000BF00BF06480068EF
:1044FC00006880F3088862B661B6BFF34F8FBFF3D4
:10450C006F8F00DF00BF000008ED00E000BF00BFB0
:10451C0080B58AB000AF544B1B687B627B6A2C332E
:10452C001B68524A93420BD04FF0500383F311880F
:10453C00BFF36F8FBFF34F8FFB6100BF00BFFDE771
:10454C007B6A38331B684A4A93420BD04FF05003B6
:10455C0083F31188BFF36F8FBFF34F8FBB6100BF25
:10456C0000BFFDE70023BB60424B3B623B6A1B78FC
:10457C00DBB2FB733B6AFF221A703B6A1B78DBB21F
:10458C00FB71FB79DBB203F05003DAB23A4B1A70D1
:10459C00394B1B78002B0BD14FF0500383F3118850
:1045AC00BFF36F8FBFF34F8F7B6100BF00BFFDE781
:1045BC00FB79DBB2DB4303F05003002B13D04FF03D
:1045CC00500383F31188BFF36F8FBFF34F8F3B61A1
:1045DC0000BF00BFFDE7BB680133BB60FB79DBB2FA
:1045EC005B00DBB2FB71FB79DBB203F08003802B49
:1045FC00F1D0BB68082B03D1204B00221A6004E0D9
:10460C00BB68C3F107031D4A13601C4B1B681B02DC
:10461C001A4A1360194B1B6803F4E063174A1360C2
:10462C00FB7BDAB23B6A1A70154B1B68144A43F4D5
:10463C007F031360124B1B68114A43F07F431360D6
:10464C00104B00221A6000F0C9F80F4B00221A60C0
:10465C00FFF74CFFFFF702F8FFF708FF002318469F
:10466C002837BD4680BD00BF08ED00E0D1440008EE
:10467C004D47000800E400E0E4100020E8100020A2
:10468C0020ED00E01CED00E00400002080B483B0BD
:10469C0000AF4FF0500383F31188BFF36F8FBFF35C
:1046AC004F8F7B6000BF0F4B1B6801330D4A1360AB
:1046BC000C4B1B68012B10D10B4B1B68DBB2002B76
:1046CC000BD04FF0500383F31188BFF36F8FBFF300
:1046DC004F8F3B6000BF00BFFDE700BF0C37BD46EE
:1046EC0080BC70470400002004ED00E080B483B06F
:1046FC0000AF124B1B68002B0BD14FF0500383F310
:10470C001188BFF36F8FBFF34F8F7B6000BF00BF6B
:10471C00FDE70A4B1B68013B084A1360074B1B68FB
:10472C00002B05D100233B603B6883F3118800BF4D
:10473C0000BF0C37BD4680BC704700BF0400002092
:10474C00EFF30980BFF36F8F0D4B1A6820E9F00F60
:10475C0010602DE908404FF0500080F31188FEF7EF
:10476C007DFF4FF0000080F31188BDE80840196808
:10477C000868B0E8F00F80F30988BFF36F8F7047BB
:10478C009C0F002000BF00BF80B582B000AF4FF07F
:10479C00500383F31188BFF36F8FBFF34F8F7B6090
:1047AC0000BFFDF713FAFEF737FE0346002B06D0C9
:1047BC00FDF76AFA084B4FF080521A6001E0FDF7E2
:1047CC0047FA00233B603B6883F3118800BF00BFAE
:1047DC000837BD4680BD00BF04ED00E080B400AFDB
:1047EC000A4B00221A600A4B00221A60094B1B6804
:1047FC00094AA2FB03239B09084A013B1360034BA4
:10480C0007221A6000BFBD4680BC704710E000E074
:10481C0018E000E014000020D34D621014E000E01A
:10482C0080B485B000AFEFF30583FB60FB680F2B02
:10483C0015D9174AFB6813441B78FB72154B1B7870
:10484C00FA7A9A420BD24FF0500383F31188BFF3DC
:10485C006F8FBFF34F8F7B6000BF00BFFDE70E4B28
:10486C001B6803F4E0620D4B1B689A420BD94FF0A6
:10487C00500383F31188BFF36F8FBFF34F8F3B60EF
:10488C0000BF00BFFDE700BF1437BD4680BC7047BA
:10489C00F0E300E0E41000200CED00E0E810002054
:1048AC0080B58EB000AF78600023FB620023BB6242
:1048BC007B68002B22D00823DB437A689A421BD8F2
:1048CC0008227B6813447B607B6803F00703002B92
:1048DC0014D07B6803F00703C3F108037B627B6A87
:1048EC00DB437A689A4204D87A687B6A13447B600B
:1048FC0004E000237B6001E000237B60FEF744FCB6
:10490C007C4B1B68002B01D100F07CF97B68002BE1
:10491C00C0F2D7807B68002B00F0D380764B1B68ED
:10492C007A689A4200F2CD80744B3B63734B1B68E0
:10493C007B637B6B724A934205D37B6B714A9342C8
:10494C0001D8012300E00023002B29D14FF05003A4
:10495C0083F31188BFF36F8FBFF34F8FFB6100BFE1
:10496C0000BFFDE77B6B3B637B6B1B687B637B6BE7
:10497C00634A934205D37B6B624A934201D801236D
:10498C0000E00023002B0BD14FF0500383F3118870
:10499C00BFF36F8FBFF34F8FBB6100BF00BFFDE74D
:1049AC007B6B5B687A689A4203D97B6B1B68002B24
:1049BC00D8D1504B1B687A6B9A4200F082803B6BCB
:1049CC001B6808221344FB62FB6A4D4A934205D3D1
:1049DC00FB6A4C4A934201D8012300E00023002BD0
:1049EC000BD14FF0500383F31188BFF36F8FBFF3DC
:1049FC004F8F7B6100BF00BFFDE77B6B1A683B6B81
:104A0C001A607B6B5B687A689A420BD94FF0500343
:104A1C0083F31188BFF36F8FBFF34F8F3B6100BFE0
:104A2C0000BFFDE77B6B5A687B68D21A08235B00DA
:104A3C009A4224D97A6B7B6813443B623B6A03F03D
:104A4C000703002B0BD04FF0500383F31188BFF3F7
:104A5C006F8FBFF34F8FFB6000BF00BFFDE77B6B19
:104A6C005A687B68D21A3B6A5A607B6B7A685A60C8
:104A7C003B6B1A683B6A1A603B6B3A6A1A601E4BB6
:104A8C001A687B6B5B68D31A1B4A13601A4B1A6843
:104A9C001D4B1B689A4203D2174B1B681A4A1360B2
:104AAC007B6B5B68BB627B6B5B6843F000427B6B30
:104ABC005A607B6B00221A60144B1B680133134A3B
:104ACC001360FEF76FFBFB6A03F00703002B0BD0A0
:104ADC004FF0500383F31188BFF36F8FBFF34F8FE9
:104AEC00BB6000BF00BFFDE7FB6A18463837BD4608
:104AFC0080BD00BFF4400020F8400020EC400020B6
:104B0C00EC100020EB400020FC4000200041002075
:104B1C0080B588B000AF78607B68FB617B68002B48
:104B2C0064D008235B42FA691344FB61FB69BB61E7
:104B3C00BB69304A934205D3BB692F4A934201D8D3
:104B4C00012300E00023002B0BD14FF0500383F323
:104B5C001188BFF36F8FBFF34F8F7B6100BF00BF16
:104B6C00FDE7BB695B68002B0BDB4FF0500383F355
:104B7C001188BFF36F8FBFF34F8F3B6100BF00BF36
:104B8C00FDE7BB691B68002B0BD04FF0500383F380
:104B9C001188BFF36F8FBFF34F8FFB6000BF00BF57
:104BAC00FDE7BB695B68DB0F03F00103DBB2002B95
:104BBC001CD0BB691B68002B18D1BB695B6823F048
:104BCC000042BB695A60FEF7DFFABB695A680B4BAF
:104BDC001B681344094A1360B86900F06DF8084B60
:104BEC001B680133064A1360FEF7DCFA00BF20375E
:104BFC00BD4680BDEC100020EB400020F8400020AA
:104C0C000441002080B485B000AF4FF44053BB602A
:104C1C00244BFB60FB6803F00703002B0CD0FB68F4
:104C2C000733FB60FB6823F00703FB60BA68FB6883
:104C3C00D31A1C4A1344BB60FB681B4A13601A4B03
:104C4C0000225A60FA68BB6813447B6008227B68B8
:104C5C009B1A7B607B6823F007037B607B68134A9D
:104C6C001360124B1B6800225A60104B1B68002209
:104C7C001A60FB683B603B687A68D21A3B685A60E2
:104C8C000A4B1A683B681A603B685B68084A1360F9
:104C9C003B685B68074A136000BF1437BD4680BC95
:104CAC00704700BFEC100020EC400020F4400020C6
:104CBC00FC400020F840002080B487B000AF786042
:104CCC00364B7B6102E07B691B687B617B691B68EF
:104CDC007A689A42F7D87B69304A934218D07B693C
:104CEC002F4A934205D37B692E4A934201D8012364
:104CFC0000E00023002B0BD14FF0500383F31188FD
:104D0C00BFF36F8FBFF34F8FFB6000BF00BFFDE79A
:104D1C007B693B617B695B683A6913447A689A42A8
:104D2C0008D17B695A687B685B681A447B695A6056
:104D3C007B697B607B683B617B685B683A691A4482
:104D4C007B691B689A4218D17B691A68164B1B68E1
:104D5C009A420DD07B685A687B691B685B681A4461
:104D6C007B685A607B691B681A687B681A6008E06C
:104D7C000D4B1A687B681A6003E07B691A687B68C4
:104D8C001A607A697B689A4202D07B697A681A60E9
:104D9C0000BF1C37BD4680BC704700BFEC400020F4
:104DAC00EC100020EB400020F440002090B58BB0BC
:104DBC0000AFF860B9607A603B60FB685B681946CD
:104DCC007868FBF707FA03461A46FB689A60FB689B
:104DDC001C68FB689B6839681846FBF705FB0346A3
:104DEC0019462046FBF7F8F903461A46FB681A6089
:104DFC00FB68DC68FB689B6939681846FBF7F4FABA
:104E0C0003461A46FB681B6919461046FBF7E2F984
:104E1C0003461A46FB685B6919461046FBF7DAF93C
:104E2C0003461A466A4B1B6819461046FBF7D4F921
:104E3C00034639681846FBF7D7FA0346194620464D
:104E4C00FBF7CAF903461A46FB68DA60FB681C6973
:104E5C00FB689B6939681846FBF7C6FA0346194686
:104E6C002046FBF7B7F903461A46FB681A61FB6844
:104E7C005C69FB689B6939681846FBF7B5FA034611
:104E8C0019462046FBF7A6F903461A46FB685A61F9
:104E9C00FB689C694F4B1B6839681846FBF7A4FAF2
:104EAC00034619462046FBF797F903461A46FB685A
:104EBC009A61FB68DB68484A126811461846FBF792
:104ECC008BF903467B62FB68DB68796A1846FBF753
:104EDC003FFB03463B61FB685B69796A1846FBF74D
:104EEC0037FB03467B61FB681B681946B868FBF708
:104EFC0071F903463B62FB681C683B69396A1846CA
:104F0C00FBF772FA034619462046FBF765F9034690
:104F1C001A46FB681A60FB685C687B69396A18463C
:104F2C00FBF762FA034619462046FBF755F9034690
:104F3C001A46FB685A60FB68DB68FB61FB681B69FF
:104F4C00BB61FB68DC683B69F9691846FBF74CFAF6
:104F5C00034619462046FBF73DF903461A46FB6803
:104F6C00DA60FB681C693B69B9691846FBF73CFAC7
:104F7C00034619462046FBF72DF903461A46FB68F3
:104F8C001A61FB685C697B69F9691846FBF72CFAB6
:104F9C00034619462046FBF71DF903461A46FB68E3
:104FAC005A61FB689C697B69B9691846FBF71CFA66
:104FBC00034619462046FBF70DF903461A46FB68D3
:104FCC009A61FB681B6818462C37BD4690BD00BF24
:104FDC00080000200C0000201000002080B582B0DA
:104FEC0002AF00F061FC00F02DF800F0E5FA00F0E3
:104FFC00B5FA00F0A3F8FBF7E1FB00F0D3F80023BF
:10500C0001930223009300234FF4807209490A484C
:10501C00FDF791FD002301930423009300234FF42B
:10502C00807206490648FDF786FDFEF751F800BF71
:10503C00FDE700BFA081000821540008A8810008EA
:10504C00C950000880B590B000AF07F118032822B2
:10505C000021184602F0B2FD3B1D00221A605A6076
:10506C009A60DA601A610223BB610123BB621023D0
:10507C00FB6200237B6307F11803184601F010FF55
:10508C000346002B01D000F0D7FA0F237B600023DE
:10509C00BB600023FB6000233B6100237B613B1D55
:1050AC000021184602F07EF90346002B01D000F0D7
:1050BC00C3FA00BF4037BD4680BD000080B582B04A
:1050CC0000AF78606420FDF773FF194B1B6803F089
:1050DC000103002B24D0164BDB68154A43F0807378
:1050EC00D360144B00225A60124B1B68114A43F0D8
:1050FC00010313604FF060430F4AC3F8B02F4FF019
:10510C0060430022C3F8802E4FF060430322C3F8A3
:10511C00802E4FF060430122C3F8002EFCF78EFA6C
:10512C000020FDF777FE00BF0837BD4680BD00BFED
:10513C00F0ED00E0001000E055CEACC580B400AF3F
:10514C00104BDB690F4A43F00103D3614FF08043EE
:10515C004FF0FF32DA620C4B1B680C4AA2FB0323A4
:10516C009B0C4FF08042013B93624FF080431B68D5
:10517C004FF0804243F00103136000BFBD4680BC7A
:10518C00704700BF001002401400002083DE1B4358
:10519C0080B400AF4FF080435B6A1846BD4680BCBC
:1051AC007047000080B584B004AF4FF47A7302935B
:1051BC0001230193274B009301237522D02126480C
:1051CC0001F046F8234B1B78682B3FD1234B002270
:1051DC001A704FF47A730293012301931F4B0093BF
:1051EC0001236B22D0211C4800F038FF1B4B0722F7
:1051FC001A704FF47A73029301230193174B0093A7
:10520C0001231922D021144800F028FF134B00224F
:10521C001A704FF47A730293012301930F4B00938E
:10522C0001231B22D0210C4800F018FF0B4B00224D
:10523C001A704FF47A73029301230193074B009376
:10524C0001231C22D021044800F008FF00BFBD46FA
:10525C0080BD00BF3841002074410020394100203E
:10526C0080B586B004AF4FF47A7302930623019392
:10527C003B46009301234322D021274800F0E8FF4E
:10528C003B781B021AB27B781BB213431AB2234B26
:10529C001A80BB781B021AB2FB781BB213431AB2EA
:1052AC001F4B1A803B791B021AB27B791BB213433A
:1052BC001AB21C4B1A80194BB3F900301846FBF785
:1052CC003FF8034618491846FBF742F903461A46BD
:1052DC00164B1A60124BB3F900301846FBF730F836
:1052EC00034611491846FBF733F903461A46104B8F
:1052FC001A600C4BB3F900301846FBF721F8034643
:10530C0009491846FBF724F903461A46094B1A605B
:10531C0000BF0837BD4680BD744100202E410020DF
:10532C003041002032410020000003431C4100208A
:10533C00204100202441002080B586B004AF4FF4FA
:10534C007A730293062301933B46009301233B227D
:10535C00D021294800F07CFF3B781B021AB27B78E5
:10536C001BB213431AB2254B1A80BB781B021AB21C
:10537C00FB781BB213431AB2214B1A803B791B02E8
:10538C001AB27B791BB213431AB21E4B1A801B4BF9
:10539C00B3F900301846FAF7D3FF03464FF08D41AE
:1053AC001846FBF7D5F803461A46174B1A60144BF0
:1053BC00B3F900301846FAF7C3FF03464FF08D419E
:1053CC001846FBF7C5F803461A46104B1A600D4BEE
:1053DC00B3F900301846FAF7B3FF03464FF08D418E
:1053EC001846FBF7B5F803461A46094B1A6000BF7E
:1053FC000837BD4680BD00BF744100202841002005
:10540C002A4100202C410020104100201441002092
:10541C0018410020B0B586B000AF786000F06CFA8F
:10542C000346424A1360FFF787FFFFF719FF00F0AE
:10543C0063FA78613D4B1B687A69D31A1846FAF700
:10544C007BFF03463A491846FBF782F803463B615B
:10545C00364A7B691360374B1C68374B1B68364ADE
:10546C00126811461846FAF7BFFF03461D46334B28
:10547C001B68324A126811461846FAF7B5FF034604
:10548C0019462846FAF7A8FE0346184602F0D8FB40
:10549C0003461946204602F0D1FB0346284918461C
:1054AC00FAF7A2FF0346FB60234B1C68214B1B68D9
:1054BC00204A126811461846FAF796FF03461D4615
:1054CC001E4B1B681D4A126811461846FAF78CFFD2
:1054DC00034619462846FAF77FFE0346184602F0A3
:1054EC00AFFB03461946204602F0A8FB03461449BD
:1054FC001846FAF779FF0346BB60124B1A683B69F2
:10550C00F9681148FFF752FC0346104A1360104B20
:10551C001A683B69B9680F48FFF748FC03460E4A06
:10552C0013600A20FDF744FD00BF7CE734410020E6
:10553C0000007A4410410020144100201841002042
:10554C00E62E65421C4100203C4100200841002011
:10555C0020410020584100200C41002080B500AFB4
:10556C00124B134A1A60114B124A5A600F4B00220D
:10557C009A600E4B0022DA600C4B4FF480421A6199
:10558C000A4B00225A61094B00229A61074B0022F8
:10559C00DA61064B00221A62044800F01BFC034639
:1055AC00002B01D000F048F800BF80BD74410020F2
:1055BC0000540040A086010080B485B000AF144BAD
:1055CC009B69134A43F020039361114B9B6903F0D1
:1055DC002003FB60FB680E4B9B690D4A43F00403F0
:1055EC0093610B4B9B6903F00403BB60BB68084BD6
:1055FC009B69074A43F008039361054B9B6903F0D1
:10560C0008037B607B6800BF1437BD4680BC7047C5
:10561C000010024080B582B000AF78607B681B68D8
:10562C00044A934201D100F055F900BF0837BD463A
:10563C0080BD00BF002C014080B400AF72B600BF2B
:10564C0000BFFDE780B485B000AF154B9B69144AD1
:10565C0043F001039361124B9B6903F00103BB60A0
:10566C00BB680F4BDB690E4A43F08053D3610C4B84
:10567C00DB6903F080537B607B680A4B5B68FB60E3
:10568C00FB6823F0E063FB60FB6843F00073FB6096
:10569C00044AFB68536000BF1437BD4680BC70479A
:1056AC00001002400000014080B588B000AF786067
:1056BC0007F1100300221A605A609A60DA607B6866
:1056CC001B68154A934223D1144B9B69134A43F030
:1056DC0008039361114B9B6903F00803FB60FB68A3
:1056EC00C0233B6112237B610323FB6107F1100391
:1056FC0019460B4800F0EAF9084BDB69074A43F4FA
:10570C000013D361054BDB6903F40013BB60BB686A
:10571C0000BF2037BD4680BD005400400010024041
:10572C00000C014080B58CB000AF78600023BB62E8
:10573C0000237B62002387F82F302E4B9B692D4A68
:10574C0043F4006393612B4B9B6903F40063BB60D0
:10575C00BB6807F10C0207F110031146184601F063
:10576C0091FF01F07BFFB862BB6A234AA2FB0323C3
:10577C009B0C013B7B62214B214A1A601F4B40F270
:10578C00E732DA601D4A7B6A53601C4B00221A61B7
:10579C001A4B00229A60194B00229A61174801F0AB
:1057AC00BFFF034687F82F3097F82F30002B1BD103
:1057BC00124802F00DF8034687F82F3097F82F3077
:1057CC00002B11D1192000F072F97B680F2B08D82F
:1057DC0000227968192000F04EF90A4A7B681360A0
:1057EC0002E0012387F82F3097F82F301846303716
:1057FC00BD4680BD0010024083DE1B43C841002023
:10580C00002C01401800002080B400AF00BFFDE761
:10581C0080B400AF00BFFDE780B400AF00BFFDE770
:10582C0080B400AF00BFFDE780B400AF00BFFDE760
:10583C0080B400AF00BFBD4680BC704780B500AFE0
:10584C00024802F017F800BF80BD00BFC84100201D
:10585C0080B400AF00BFBD4680BC7047FFF7F8FFB7
:10586C000B480C490C4A002302E0D458C4500433B2
:10587C00C4188C42F9D3094A094C002301E0136087
:10588C000432A242FBD302F0A7F9FFF7A7FB704743
:10589C0000000020780000204C82000878000020D6
:1058AC004C430020FEE7000080B500AF084B1B689E
:1058BC00074A43F010031360032000F0D1F80F20C7
:1058CC00FFF730FFFFF7BEFE0023184680BD00BF78
:1058DC000020024080B400AF054B1B781A46054BE4
:1058EC001B681344034A136000BFBD4680BC70475D
:1058FC001C0000201042002080B400AF024B1B683B
:10590C001846BD4680BC70471042002080B485B05C
:10591C0000AF78607B6803F00703FB600C4BDB681F
:10592C00BB60BA684FF6FF031340BB60FB681A02FA
:10593C00BB68134343F0BF6343F40033BB60044ABA
:10594C00BB68D36000BF1437BD4680BC704700BF36
:10595C0000ED00E080B400AF044BDB681B0A03F0E1
:10596C0007031846BD4680BC704700BF00ED00E041
:10597C0080B483B000AF0346FB7197F90730002B5E
:10598C000BDBFB7903F01F02064997F907305B0923
:10599C00012000FA02F241F8232000BF0C37BD466B
:1059AC0080BC704700E100E080B483B000AF0346D8
:1059BC003960FB7197F90730002B0ADB3B68DAB2D0
:1059CC000C4997F907301201D2B20B4483F800232B
:1059DC000AE03B68DAB20849FB7903F00F03043B99
:1059EC001201D2B20B441A7600BF0C37BD4680BCF4
:1059FC00704700BF00E100E000ED00E080B489B02A
:105A0C0000AFF860B9607A60FB6803F00703FB61D4
:105A1C00FB69C3F10703042B28BF0423BB61FB699B
:105A2C000433062B02D9FB69033B00E000237B61A6
:105A3C004FF0FF32BB6902FA03F3DA43BB681A403A
:105A4C007B699A404FF0FF317B6901FA03F3D9432C
:105A5C007B680B40134318462437BD4680BC704707
:105A6C0080B582B000AF78607868FFF74FFF00BF59
:105A7C000837BD4680BD80B586B000AF0346B9601F
:105A8C007A60FB7300237B61FFF764FF78617A68AF
:105A9C00B9687869FFF7B2FF024697F90F301146E3
:105AAC001846FFF781FF00BF1837BD4680BD80B593
:105ABC0082B000AF0346FB7197F907301846FFF729
:105ACC0057FF00BF0837BD4680BD000080B48BB0C7
